:020000040800F2
:1000000020210020A1010008C32800083722000891
:10001000C12800087D0900084933000800000000DD
:10002000000000000000000000000000592C000843
:10003000A109000800000000152C0008952C0008FC
:10004000BB010008BB010008BB010008BB010008A0
:10005000BB010008BB010008BB010008BB01000890
:10006000BB010008BB010008BB010008BB01000880
:10007000BB010008BB010008BB010008BB01000870
:10008000BB010008BB010008BB010008BB01000860
:10009000BB010008BB010008BB010008BB01000850
:1000A000BB010008BB010008BB010008BB01000840
:1000B000BB0100083D2D0008BB010008BB01000882
:1000C000BB010008BB010008BB010008BB01000820
:1000D000BB010008313300083D330008BB010008B4
:1000E000BB010008BB010008BB010008BB01000800
:1000F000BB010008BB010008BB010008BB010008F0
:10010000BB010008BB010008492D0008BB01000825
:10011000BB01000851300008BB010008BB0100080A
:10012000BB010008BB010008BB010008BB010008BF
:10013000BB010008BB010008BB010008BB010008AF
:10014000BB010008BB010008BB010008BB0100089F
:10015000BB010008BB010008BB010008BB0100088F
:10016000BB010008BB010008BB010008BB0100087F
:10017000BB010008BB010008BB0100080000000033
:10018000BB010008BB010008DFF810D000F0B8FB8D
:1001900000480047E5560008AFF30080202100200A
:1001A0000648804706480047FEE7FEE7FEE7FEE711
:1001B000FEE7FEE7FEE7FEE7FEE7FEE72D2D00087F
:1001C000890100082DE9F05F0546002092469B4614
:1001D00088460646814640241BE02846414647465D
:1001E000224600F056FA53465A46C01A914110D39F
:1001F00011461846224600F03DFA2D1A67EB010819
:100200004F4622460120002100F034FA17EB000986
:100210004E41201EA4F10104DFDC484631462A4647
:100220004346BDE8F09F40EA01039B0703D009E085
:1002300008C9121F08C0042AFAD203E011F8013BD2
:1002400000F8013B521EF9D27047D2B201E000F82B
:10025000012B491EFBD270470022F6E710B513466A
:100260000A4604461946FFF7F0FF204610BD30B598
:1002700004460020034600E05B1C934203D2E05C8E
:10028000CD5C401BF8D030BD2DE9FE4F804681EAA1
:100290000300C00F0C46009021F0004123F0004500
:1002A000B8EB0200A94105D24046214690461C46C3
:1002B0000B46024623F00040104347D0270DC7F3FA
:1002C0000A00C3F30A510290401A019040286BDAE9
:1002D000C3F3130040F4801B0098924620B1002322
:1002E000D2EB030A63EB0B0B01985946C0F14002B5
:1002F000504600F0BFF906460D4650465946019A51
:1003000000F0D7F910EB08006141002487EA115290
:1003100084EAE7731A4340D0009A62B3019A012A33
:100320004FEA075215DC001B61EB02014FF000425F
:1003300002EA0752CDE90042001C41F58011324625
:100340002B4600F00EFA03B0BDE8F08F4046214680
:10035000F9E7001B61EB0201001C41F58013001856
:100360005B412018A2F5001747EB030140EAD57066
:10037000B6196D4111E06D084FEA360645EAC075C1
:100380004FEA0752001B61EB0201001C41F580118E
:1003900049084FEA30000019514132462B4603B05C
:1003A000BDE8F04F00F0CEB90098012240000023D4
:1003B000D0EB020263EBE073009821464FEAE07451
:1003C000B8EB000061EB0401E9E783F000435BE771
:1003D00081F0004158E72DE9FE4F81EA030404F063
:1003E000004421F0004100944FF0000B23F0004343
:1003F00050EA01045ED052EA03045BD0C3F30A540E
:10040000C1F30A552C44A4F2F3340194A0FB025426
:10041000C1F3130141F48011C3F3130343F48013B8
:1004200001FB024400FB034E840A970A44EA81540C
:1004300047EA8357A4FB076802958D0A05FB0785E9
:100440004FEA932C04FB0C542705029D4FEA0658F3
:1004500047EA1637B5EB08056EEB070C870E920ED0
:1004600047EA811742EA8312A7FB0201B6EB0B01B0
:1004700064EB00042B0D43EA0C335E1844EB1C5074
:10048000DA465146E7FB0201C5F313044FEA0B338A
:1004900043EA14534FEA0432019C43EA0603A4F1F1
:1004A0000C040294009CCDE900B400F05AF903B0AA
:1004B000BDE8F08F00200146F9E72DE9F04D81EA13
:1004C000030404F0004B21F0004514464FF0000AED
:1004D00023F0004150EA050220D054EA01021DD069
:1004E000C5F30A570246C5F31303C1F31300C1F362
:1004F0000A5640F4801543F48013A7EB0608101B3E
:10050000D64608F2FD3873EB050002D308F1010866
:1005100001E092185B41B8F1000F03DA00200146B8
:10052000BDE8F08D00204FF48011064684460EE0B1
:10053000171B73EB050705D3121B63EB050306437B
:100540004CEA010C49084FEA300092185B4150EA2E
:100550000107EDD152EA030012D082EA040083EAD7
:100560000501084305D0101BAB4106D20122002330
:1005700006E000224FF0004302E06FF0010253104A
:100580001AEB06004CEB085110EB0A0041EB0B0193
:10059000BDE8F04D00F0D6B80EB5C10F80EAE070AE
:1005A0000844CA07002140F233438DE80E000A4692
:1005B0000B4600F0D6F803B000BD00F0004230F06A
:1005C00000400AD0C10D01F56071C0F3160042EA87
:1005D0000151C2084007114370470020014670478F
:1005E00030B5041E71F1000404DB4FF000444042BA
:1005F00064EB0101141E73F1000405DB1C464FF08F
:100600000043524263EB0403994208BF904230BD5D
:1006100001F0004330B421F0004150EA010206D05D
:100620000A0DA2F56072C1F31301002A02DC30BC8E
:1006300000207047440F44EAC104C100E01830BCF8
:1006400000EBC25000F047B830B50B460146002021
:100650002022012409E021FA02F59D4205D303FA84
:1006600002F5491B04FA02F52844151EA2F1010205
:10067000F1DC30BD202A04DB203A00FA02F1002030
:1006800070479140C2F1200320FA03F319439040D0
:100690007047202A04DB203A21FA02F0002170473B
:1006A00021FA02F3D040C2F12002914008431946DA
:1006B0007047202A06DBCB17203A41FA02F043EAC2
:1006C000E07306E041FA02F3D040C2F1200291400B
:1006D0000843194670470029A8BF7047401C4900CD
:1006E00008BF20F00100704710B4B0FA80FC00FA97
:1006F0000CF050EA010404BF10BC704749B1CCF1C2
:10070000200421FA04F411FA0CF118BF012121434D
:100710000843A3EB0C01CB1D4FEA00614FEA102008
:1007200042BF002010BC704700EBC35010440029AA
:10073000A4BF10BC7047401C490008BF20F0010056
:1007400010BC704710B5141E73F1000408DA401C89
:1007500041F1000192185B411A4301D120F00100E0
:1007600010BD2DE9F04D92469B4611B1B1FA81F2D0
:1007700002E0B0FA80F220329046FFF77BFF044699
:100780000F4640EA0A0041EA0B0153465A46084325
:1007900013D0114653EA010019D0C8F14002504667
:1007A000FFF777FF05460E46504659464246FFF78B
:1007B00061FF084305D0012004E020463946BDE82A
:1007C000F08D0020054346EAE0762C4337430A9833
:1007D0006305E40AA0EB08000022FD0A44EA47543E
:1007E0000A3002D500200146E9E7010510196941E8
:1007F000DDE9084500196941BDE8F04DA2E770B593
:1008000021F0004303430CD0C1F30A550024D5EB7B
:10081000040564EB0403D617AD1AB34102DB0020D4
:10082000014670BD201841EB025170BD2DE9F04D1D
:1008300000231A461B1A8A4103DB00200146BDE84B
:10084000F08DC1F30A52C1F3130141F480154FF04A
:10085000000BD10702D100186D41521E002704463B
:1008600040F2FF11384601EB620A3E4680460246DE
:1008700000204FF48011FFF70CFFC2197141BB1823
:1008800046EB0100B4EB030C75EB000C04D3E41A47
:1008900065EB000517460E46241908F101006D416D
:1008A00080463428E3DDF91946EB0600091BA84110
:1008B00003D24FF0FF32134601E0002213461BEB38
:1008C000070046EB0A51BDE8F04DFFF73BBFC1F30F
:1008D0000A52C1F3130140F2FF3341F480119A42EE
:1008E00002DA00200146704740F233439A42A2F2F6
:1008F000334202DC5242FFF7CCBEFFF7BBBE000022
:10090000064C074D06E0E06840F0010394E807005C
:1009100098471034AC42F6D3FFF73AFC90690008D0
:10092000B06900080EB540F2334102910021CDE9D3
:1009300000110A460B46FFF714FF03B000BD70B567
:10094000C1F30A5201F000450024C1F3130140F243
:10095000FF3341F480119A4201DA002070BD40F269
:1009600033439A42A2F2334203DC5242FFF791FE34
:1009700000E090402C43F1D0404270BDFEE7000003
:1009800030B5034600200246044C04E013F8015B36
:100990004540521C605D8A42F8DB30BD105C0008A7
:1009A000704772B6FEE72DE9F0410446876D00F00E
:1009B00053F9064694F835000025022806D0802019
:1009C000606584F834500120BDE8F081206801683A
:1009D00021F0160101602068416921F08001416128
:1009E000206C08B9A06C20B12068016821F00801D2
:1009F00001602068016821F0010101600CE000F055
:100A00002BF9801B052807D920206065032084F876
:100A1000350084F83450D7E720680068C007EED16D
:100A200094F85C103F208840B860012084F83500BD
:100A300084F834500020C7E790F83510022903D01D
:100A40008021416501207047052180F8351000683C
:100A5000016821F001010160002070472DE9F84F85
:100A6000DFF8BCA10022012503264FF00F090AF18F
:100A7000040BAAF1040E00BF0B6805FA02F4234030
:100A8000A34270D10F7907F00307012F01D0022F85
:100A900016D187684FEA420806FA08FC27EA0C07D5
:100AA000D1F80CC00CFA08FC4CEA070CC0F808C0DE
:100AB0004768A7430C79C4F3001494403C43446056
:100AC0000C79E443A4070AD0C4684FEA420C06FA42
:100AD0000CF7BC438F6807FA0CF72743C7600C7903
:100AE00004F00304022C12D1D40800EB840CDCF8CF
:100AF00020405707FF0E09FA07F824EA0804D1F846
:100B0000108008FA07F848EA0408CCF82080046846
:100B10004FEA420C06FA0CF7BC430F7907F00307C3
:100B200007FA0CF7274307604C6814F4403F70D075
:100B30003C4C276847F480472760246822F003076D
:100B400004F480440094384C07EB040CDCF80848AB
:100B500097074FEA177809FA08F7BC43334FB842B2
:100B600002D1002724E054E0314FB84201D10127DF
:100B70001EE0304FB84201D1022719E02E4FB84293
:100B800001D1032714E02D4FB84201D104270FE013
:100B90002B4FB84201D105270AE02A4FB84201D1B4
:100BA000062705E0284FB84201D1072700E00827B3
:100BB00007FA08F72743CCF80878DAF800405746D8
:100BC000D1F804C09C435FEACC2C00D51C433C60A8
:100BD000DBF800405F46D1F804C09C435FEA8C2CF0
:100BE00000D51C433C60DEF800407746D1F804C0D5
:100BF0009C435FEA8C3C00D51C433C60084F083F97
:100C00003C68D1F804C09C435FEACC3C00D51C434F
:100C10003C60521C102AFFF42FAFBDE8F88F000093
:100C2000083C0140443802400030014000000240CE
:100C30000004024000080240000C02400010024084
:100C40000014024000180240001C02400AB18161F9
:100C500070470904FBE70000014880687047000006
:100C600018000020024881680278114481607047B2
:100C7000180000200B4810B5016841F400710160B4
:100C8000016841F480610160016841F48071016094
:100C9000032000F06FF80F2000F006F800F024F8B1
:100CA000002010BD003C024070B50D4D04464FF4CD
:100CB0007A712878B1FBF0F00A490968B1FBF0F0CD
:100CC00000F00AFB48B9102C07D200222146501E22
:100CD00000F030F800206C6070BD012070BD000095
:100CE00018000020240000200A4808B5016841F4DB
:100CF00080410160006800F4804000900548001FBA
:100D0000016841F080510160006800F0805000905F
:100D100008BD000044380240002809DB00F01F0233
:100D2000012191404009800000F1E020C0F800114D
:100D300070470000F0B40E4B1B680C46C3F302234F
:100D4000C3F10705042D00D90425191D072901D277
:100D5000002300E0DB1E012606FA05F1491E2140B2
:100D600099409E40761E16403143F0BC02F02ABBEB
:100D70000CED00E0064900F0070208684FF6FF039B
:100D8000184040EA0220034A104308607047000000
:100D90000CED00E00000FA052DE9F0470E460500D5
:100DA00065D0DFF81481D8F80000F7B200F0070032
:100DB000B04207D288F80070D8F8000000F00700B1
:100DC000B04254D128683D4C810712D5400703D565
:100DD000206840F4E05020602878000703D52068A0
:100DE00040F4604020602068A96820F0F0000843CB
:100DF00020602878C0072DD030496868083901285C
:100E000012D0022813D0032811D0096889070029BD
:100E10002DDA216821F0030101432160FFF71CFF57
:100E2000814641F2883A0EE009688903EFE70968D4
:100E30008901ECE7FFF710FFA0EB0901514502D94A
:100E40000320BDE8F0872068696800F00C00B0EB73
:100E5000810FEFD1D8F80010404601F00701B142F0
:100E600007D90770006800F00700B04201D00120E8
:100E7000E7E72878400705D52068E96820F4E050C6
:100E8000084320602878000706D52068296920F4E7
:100E9000604040EAC100206000F038F82168084A4C
:100EA000C1F30311515CC840064908600648006858
:100EB000FFF7FAFE0020C4E7003C02400838024079
:100EC00074670008240000201C0000200448054925
:100ED00000680968044AC1F38221515CC840704728
:100EE00024000020083802408467000804480549AF
:100EF00000680968044AC1F34231515CC840704738
:100F0000240000200838024084670008154810B506
:100F1000006810F00C02144813D04110042A0FD0BE
:100F2000082A0ED10F4C241F2268236802F03F02CA
:100F30005B0207D52068C0F38810A0FB010106E022
:100F4000084610BD2168C1F38811A1FB00010023F0
:100F5000FFF738F92168C1F30141491C4900B0FB92
:100F6000F1F010BD083802400024F4002DE9F84FDC
:100F700004006ED02078DFF84C93C007A9F1040577
:100F80004AD009F104000168C1F38101012908D0A8
:100F90000068C0F3810002280AD1D9F8000040029D
:100FA00006D52868800337D560680028E1D033E093
:100FB0006068B0F5803F10D0B0F5A02F286810D041
:100FC00020F480302860286820F480202860606841
:100FD000A8B1FFF741FE06460DE0286840F48030D6
:100FE000F4E740F480202860F7E700BFFFF734FE05
:100FF000801B642873D828688003F7D50CE0FFF7BE
:101000002BFE064605E000BFFFF726FE801B642886
:10101000F0D828688003F7D42078DFF8AC82800706
:101020004FF0000A3ED5A748001D016811F00C0FD3
:1010300008D00068C0F3810002280BD1D9F8000065
:10104000400207D42868800716D5E068012800D13F
:1010500012E033E1E068B8B10120C8F80000FFF702
:10106000FBFD064605E000BFFFF7F6FD801B0228EA
:10107000C0D828688007F7D52868216920F0F800D3
:1010800040EAC10028600DE0C8F800A0FFF7E4FDC9
:10109000064604E0FFF7E0FD801B02281FD8286801
:1010A0008007F7D42078000722D5864F87486169EA
:1010B000703771B101210160FFF7CEFD064604E0F3
:1010C000FFF7CAFD801B022809D838688007F7D5CA
:1010D0000EE0C0F800A0FFF7BFFD064605E082E085
:1010E000FFF7BAFD801B02287DD838688007F7D447
:1010F0002078400768D5DFF8CCB100270BF13C0B16
:10110000DBF80000C0000BD4DBF8001041F0805188
:10111000CBF80010DBF80000012700F080500090B1
:101120006B4E3068C00510D4306840F48070306079
:10113000FFF792FD009005E0FFF78EFD0099401A41
:10114000022850D83068C005F6D55E4EA0686C36CF
:1011500001280FD00528306810D020F00100306041
:10116000306820F004003060A068B8B1FFF774FD6B
:1011700000900FE0306840F00100F4E740F0040018
:101180003060F7E7FFF768FD0099411A41F28830B7
:10119000814266D830688007F4D50EE0FFF75CFD29
:1011A000009007E0FFF758FD0099411A41F288309E
:1011B000814256D830688007F4D42FB1DBF8001094
:1011C00021F08051CBF80010A069C8B33D49091D3A
:1011D0000968C1F3810102294AD00228504607D08C
:1011E000C8F8600000E03CE0FFF736FD04463BE055
:1011F0004746C8F86000FFF72FFD064605E000BF30
:10120000FFF72AFD801B02282BD828688001F7D41D
:10121000D4E907010843A16A2E4A490802EB0141BB
:10122000626A41EA8211084394F82C1040EA016195
:10123000C9F8001001203866FFF70EFD044606E0ED
:101240003EE000BFFFF708FD001B022809D8286810
:101250008001F7D534E000BFFFF7FEFC001B022839
:1012600002D90320BDE8F88F28688001F4D427E074
:101270000128F7D0D9F80000E26900F4800191421A
:101280001CD1226A00F03F01914217D147F6C0718C
:10129000626A0140B1EB821F10D1A26A4FF0FF33A6
:1012A00000F4403103EB5202B1EB024F06D194F847
:1012B0002C1000F07060B0EB016F01D00120D1E77D
:1012C0000020CFE70438024000004742800E47422A
:1012D000007000400000FFFF10B5401EB0F1807F9D
:1012E00001D3012010BD4FF0E02460610F21601791
:1012F00002F068F80020A06107202061002010BDE6
:101300007047704710B590F83C20012A22D0012286
:1013100080F83C20CA688C6822F4407222434C68F2
:1013200022F4806222430C6822F4006222430C699A
:1013300022F4805222434C6922F400522243C969AC
:10134000002322F480420A4301684A6480F83C305A
:10135000002010BD022010BD70B590F83C20012A7D
:1013600032D0012480F83C40022280F83D200368FE
:101370005A689D6822F070060A6832435A60134B1F
:1013800002689A4214D0B2F1804F11D0104B9A42A9
:101390000ED0104B9A420BD00F4B9A4208D00F4BF5
:1013A0009A4205D00E4B9A4202D00E4B9A4204D17B
:1013B000496825F080031943916080F83D40002181
:1013C00080F83C10084670BD022070BD000001404E
:1013D0000004004000080040000C004000040140F0
:1013E000004001400018004010B50446022249B1F7
:1013F00004290ED0082913D094F84500012816D0EE
:10140000012010BD94F842000128F9D184F842204F
:101410000FE094F843000128F2D184F8432008E05B
:1014200094F844000128EBD184F8442001E084F8CA
:1014300045200422206801F006FD2068416C41F43B
:101440000041416411492068884214D0B0F1804FB6
:1014500011D00F4988420ED00E4988420BD00E4958
:10146000884208D00D49884205D00D49884202D0F3
:101470000C49884204D1816801F00701062903D094
:10148000016841F001010160002010BD0000014031
:101490000004004000080040000C0040000401402F
:1014A000004001400018004010B5040003D094F83B
:1014B0003D0010B107E0012010BD002084F83C0081
:1014C000204600F01FF8022084F83D00211D20680E
:1014D00001F040FC012084F8460084F83E0084F8C6
:1014E0003F0084F8400084F8410084F8420084F80A
:1014F000430084F8440084F8450084F83D0000204F
:1015000010BD000010B586B0044614216846FEF7F1
:10151000A3FE244B2268002123489A421FD102686F
:1015200042F001020260006800F0010005901E48D0
:101530001438026842F010020260006800F01000E7
:101540000590581400900220CDE901010120CDE959
:10155000031069461548FFF781FA06B010BD14491B
:101560008A4212D11048001F016841F00201016057
:101570000068002200F00200059011461D20FFF7D0
:10158000D9FB1D20FFF7C8FBE7E70A498A42E4D1EF
:10159000016841F002010160006800F0020005905E
:1015A000DBE7000000000140443802400010024028
:1015B000000400400004014090F83D10012901D0D2
:1015C00001207047022180F83D100168CA6842F08E
:1015D0000102CA6000681149884214D0B0F1804FFE
:1015E00011D00F4988420ED00E4988420BD00E49C7
:1015F000884208D00D49884205D00D49884202D062
:101600000C49884204D1816801F00701062903D002
:10161000016841F0010101600020704700000140B5
:101620000004004000080040000C0040000401409D
:10163000004001400018004070B5044690F83C009E
:101640000025012817D0012684F83C60022084F888
:101650003D002068826822F0770222F47F42826097
:101660000868502838D00DDC20284FD005DC90B316
:10167000102811D14AE0022070BD302846D0402801
:101680000AD13BE060282FD070280DD0B0F5805FE4
:1016900003D0B0F5005F12D0012584F83D60002032
:1016A00084F83C00284670BDCB68D1E90121206850
:1016B00001F0D6FB2068816841F0770109E0CB6832
:1016C000D1E90121206801F0CBFB2068816841F459
:1016D00080418160E1E719E0CA684968206801F04B
:1016E00093FC5021206806E0CA684968206801F030
:1016F0009CFC6021206801F0BDFBCEE7CA68496808
:10170000206801F081FC40212068F4E7226801464E
:101710001046F0E72DE9F0410D46040003D094F89F
:101720003D0018B108E00120BDE8F081002084F8F8
:101730003C00204600F040F8022084F83D0020687C
:10174000816844F2070291438160211D206801F005
:1017500001FB226890689169166A2B68AF690343A0
:1017600040F20330814341EA0721A868EF6908434A
:101770004FF6FC418843E96840EA072001432869A5
:101780002F6A000140EA0730084369686D6926F056
:10179000AA0646EA0515294393602268906154F829
:1017A000460B0162012004F81F09E0752076E076FF
:1017B0002077A0750020B7E710B586B00446142145
:1017C0006846FEF749FD16492068884226D115482B
:1017D0000021026842F008020260006800F0080080
:1017E000059010481038026842F00102026000685B
:1017F00000F001000590032000900220CDE90201D5
:101800000190049069460848FFF728F90022114624
:101810003220FFF78FFA3220FFF77EFA06B010BDB4
:10182000000C0040403802400000024070B590F8C3
:101830003E60044690F83F5090F8423090F84320C4
:10184000022021B104290ED0012E1BD114E0012E5B
:1018500018D1012B16D184F83E0084F842000122F1
:101860000021206820E0012D0CD1012A0AD184F842
:101870003F0084F8430014E0012D03D1012B01D176
:10188000012A01D0012070BD84F83E0084F83F0099
:1018900084F8420084F8430001220021206801F00E
:1018A000C5FA01220421206801F0C0FA206801680D
:1018B00041F001010160002070BD70472DE9F04149
:1018C00004460068C66805694FF00007A90713D5EC
:1018D000B10711D5F91E01610120207720688069C8
:1018E0008007204602D0FFF7E8FF04E000F0D2F8BE
:1018F000204600F064F92777680716D5700714D5DD
:1019000021686FF004000861022020772068806958
:1019100010F4407F204602D0FFF7CFFF04E000F034
:10192000B9F8204600F04BF92777280715D530077E
:1019300013D521686FF00800086104202077206823
:10194000C0698007204602D0FFF7B7FF04E000F02F
:10195000A1F8204600F033F92777E80616D5F006FF
:1019600014D521686FF010000861082020772068E6
:10197000C06910F4407F204602D0FFF79EFF04E0CC
:1019800000F088F8204600F01AF92777E80708D019
:10199000F00706D021686FF001000861204600F0D2
:1019A00073F9280608D5300606D521686FF0800047
:1019B00008612046FFF7A4FC680608D5700606D526
:1019C00021686FF040000861204600F0B7F9A806D2
:1019D0000AD5B00608D521686FF0200008612046BE
:1019E000BDE8F041FFF78DBCBDE8F08170B586B071
:1019F000044614216846FEF72FFC214B2268002480
:101A00002049022520489A4221D10A6842F0020268
:101A10000A600A6802F0020205920A6842F01002A7
:101A20000A6009680095CDE9015401F01001012612
:101A3000CDE9046103946946FFF710F8680300904C
:101A4000CDE90154CDE903466946104813E0104B37
:101A50009A4212D10A6842F002020A60096801F053
:101A6000020105914FF400410091CDE90154032199
:101A7000CDE903416946FEF7F1FF06B070BD0000F5
:101A800000000140303802400004024000100240D3
:101A900000040140704770B5044690F83C000026F1
:101AA0000D4601280FD0012084F83C006AB1042AB9
:101AB0001DD0082A2FD00C2A3FD00126002084F800
:101AC0003C00304670BD022070BD206801F0DAF99C
:101AD0002068816941F0080181612068816921F0F5
:101AE00004018161206881692A69114311E020683D
:101AF00001F0F8F92068816941F400618161206892
:101B0000816921F480618161206881692A6941EAE3
:101B100002218161D2E7206801F01AFA2068C169C8
:101B200041F00801C1612068C16921F00401C1616F
:101B30002068C1692A69114311E0206801F03CFA6C
:101B40002068C16941F40061C1612068C16921F464
:101B50008061C1612068C1692A6941EA0221C161CD
:101B6000ACE710B5040003D094F83D0010B107E0D5
:101B7000012010BD002084F83C00204600F01EF833
:101B8000022084F83D00211D206801F0E3F80120C7
:101B900084F8460084F83E0084F83F0084F8400052
:101BA00084F8410084F8420084F8430084F844003B
:101BB00084F8450084F83D00002010BD7047704750
:101BC00010B50446022249B104290ED0082913D0C9
:101BD00094F84100012816D0012010BD94F83E0071
:101BE0000128F9D184F83E200FE094F83F00012845
:101BF000F2D184F83F2008E094F840000128EBD1AE
:101C000084F8402001E084F841200122206801F09E
:101C10000DF916492068164A884201D0904203D136
:101C2000436C43F4004343642068884213D0B0F10E
:101C3000804F10D00F4988420DD00F4988420AD0FA
:101C40000E49884207D0904205D00D49884202D003
:101C50000C49884204D1816801F00701062903D0AC
:101C6000016841F001010160002010BD0000014049
:101C7000000401400004004000080040000C004047
:101C8000004001400018004070B5244B244C1A4617
:101C90009842B4F9081012680ED1536A2148834261
:101CA00001D2491C05E0536A42F21075AB4201D3E0
:101CB000491E2181506270BD1B4B9842FBD11068B8
:101CC000C0F300102074506AD26A9FED181A01FB0D
:101CD000020565602068281A00EE100AB8EEC00AF6
:101CE000C0EE010ABAEE040A20EE800ADFED100A07
:101CF00020EE200AF0EE000A20EE200A10EE100A74
:101D0000FEF75BFC9FED0B1B53EC112BFEF763FB07
:101D1000FEF77EFC2560E06070BD0000B41B002073
:101D2000D00F0020A08601006C1B00200080F7442B
:101D30000000A4421F85EB51B81E09407047704750
:101D400070470000F8B5016804460868CA684B6926
:101D500010F00F0F4FF0000559D003F0010602F408
:101D60009077374365D0C10705D0D10503D5616CA5
:101D700041F001016164410705D5D90703D0616CC9
:101D800041F002016164810705D5D90703D0616C78
:101D900041F004016164010707D502F020013143DD
:101DA00003D0616C41F008016164616C00293AD094
:101DB000800604D5900602D5204601F07EF9206801
:101DC0004069616CC0F38010090700D460B32046FD
:101DD00001F04CF920684069400621D52068143094
:101DE00050E8001F21F0400140E80012002AF5D120
:101DF000E06BA8B16E490165E06BFEF71DFE00289F
:101E000011D0E06B016D01B0BDE8F04008478306DA
:101E10000FD593060DD52046BDE8F84001F04DB929
:101E20002046FFF78DFFF8BD2046FFF789FF656468
:101E3000F8BD266B2023012E7DD1C6067BD5D606A4
:101E400079D508684868009048694FF00206400656
:101E500041D5E16B086840680004000CE8D0A28D11
:101E60008242E5D9E085C869B0F5807F2DD0206831
:101E70000C3050E8001F21F4807140E80012002A65
:101E8000F5D12068143050E8001F21F0010140E82E
:101E90000012002AF5D12068143050E8001F21F00C
:101EA000400140E80012002AF5D184F84230256351
:101EB00020680C3050E8001F21F0100140E80012AB
:101EC000002AF5D1E06BFEF76EFD6663A08DE18D13
:101ED000401A81B22AE0A08DE18D401A81B2E08DD6
:101EE0000028A5D00029A3D022680C3252E8000FA8
:101EF00020F4907042E80007002FF5D120681430DC
:101F000050E8002F22F0010240E80027002FF5D111
:101F100084F84230256320680C3050E8002F22F00E
:101F2000100240E80023002BF5D166632046FFF73E
:101F300006FFF8BDFFE705062BD5150629D594F851
:101F400041002128F5D1A068B0F5805F01D120695A
:101F5000B0B1206A411C2162216800784860E08CA1
:101F6000401E0004000CE084E3D12068C16821F029
:101F70008001C1602068C16841F04001C160D8E7BC
:101F8000206A0088C0F308004860206A801C206234
:101F9000E5E74006CDD55006CBD5CA68204622F0ED
:101FA0004002CA6084F8413000F044F9C1E7000003
:101FB0005D30000870B5040004D094F8410000259D
:101FC00010B106E0012070BD84F84050204600F0BA
:101FD00023F8242084F841002068C16821F40051CE
:101FE000C160204601F0CAF82068016921F49041DF
:101FF00001612068416921F02A0141612068C168BE
:1020000041F40051C1606564202084F8410084F8E7
:1020100042006563002070BD2DE9F04186B00446A2
:1020200014216846FEF718F94848474B22680024F7
:102030004649103802250326DFF814819A4233D12D
:102040000A6842F480120A60096801F4801105915F
:10205000016841F004010160016801F0040105918B
:10206000016841F008010160006802AA00F0080060
:1020700005909814CDE90005082782E8D00069464C
:102080003448FEF7EBFC0420CDE9000502AA6946BE
:1020900082E8D0004046FEF7E1FC002211463520E0
:1020A000FEF748FE352026E02B4F0723BA4227D102
:1020B0002649091D0A6842F010020A60096801F009
:1020C00010010591016841F001010160006802946E
:1020D00000F0010005904FF4C060CDE90005CDE9A6
:1020E000036369461D48FEF7B9FC0022114625200E
:1020F000FEF720FE2520FEF70FFE06B0BDE8F081BA
:10210000174FBA42F9D10A6842F400320A600968EE
:1021100001F400310591016841F008010160006897
:10212000029400F0080005906020CDE90005CDE99B
:10213000036369464046FEF791FC002211462620C3
:10214000FEF7F8FD2620D6E7005000404038024058
:10215000000C024000080240001001400000024054
:102160000044004090F84230202B01D002207047FC
:1021700021B11AB10023036301F086B80120704732
:1021800000680349884201D100F0B6B870470000EA
:10219000005000402DE9F843044690F8410098466D
:1021A00016460D46202802D00220BDE8F88385B1EE
:1021B0007EB100206064212084F84100FEF74CFDD0
:1021C000A6848146E684A0682027B0F5805F02D00F
:1021D00003E00120E9E7206910B12E4600250EE05A
:1021E00000260CE08021204601F069F8A8B9C6B1AC
:1021F00016F8010B21684860E08C401EE084E08CFA
:102200004B464FF00002CDF800800028EAD14FF095
:102210004001204601F053F840B184F8417003209A
:10222000C3E735F8020BC0F30800E3E784F8417018
:102230000020BAE77047FEE710B500211348FFF70A
:10224000F5FA04211148FFF7F1FA10480168CA684D
:1022500042F00102CA60006842F210714162082136
:102260000B48FFF7ADFC0C210948FFF7A9FC094812
:10227000FFF7A2F9084800219FED080A01604160BC
:10228000018180ED030A017410BD0000B41B002021
:10229000241B00206C1B0020D00F00200000000039
:1022A0000D4910B50A6840424FF0000308D4642875
:1022B00000DD6420C824604310640868C36310BD57
:1022C0006FF06304A04200DA2046136409686FF0DF
:1022D000C7025043C86310BD241B0020004870474C
:1022E00090000020012202490248FFF73BBF000096
:1022F00000000020441C00202DE9F0416348644F99
:1023000086B00278542A12D041682F2904DA7A5410
:10231000491C41602F2909DB18216846FDF79CFF05
:1023200002225C495A48FDF7A2FF18B1A6E000213D
:102330004160ECE7564806264FEA0D0584880020E8
:1023400000EB400131443944098825F81010401C45
:102350000C28F5DB2436B819B8460788361D3146F7
:102360004B48FEF70DFB18F8061081427DD14A4B11
:102370000B20DFED4A1ADFED4A0A4549642260313D
:10238000B4F5AD7F38D30A2F36D23E1B06F5B476AE
:1023900096FBF0F000EE100A5FF00000B8EEC02AE5
:1023A00000EE104A01EE100AB8EE400AB8EEC11A6B
:1023B00001EE020A10EE106A9E4201DD30EE610A63
:1023C000BDEEC01A11EE106A80EE201A96FBF2F7ED
:1023D00001EBC70796FBF2F601EBC60687ED001A84
:1023E00035F81070401C00EE107A0C28B8EE400A48
:1023F00086ED010AD4DB32E03E1B96FBF0F000EEE6
:10240000100A0020B8EEC02A00EE104A01EE100AB1
:10241000B8EE400AB8EEC11A01EE020A10EE106AD8
:102420009E4201DD30EE610ABDEEC01A11EE106A67
:1024300080EE201A96FBF2F701EBC70796FBF2F647
:1024400001EBC60687ED001A35F81070401C00EE4F
:10245000107A0C28B8EE400A86ED010AD4DB114848
:10246000D1ED0B0A90EDC70A00E007E030EE200A3C
:10247000F6EE000A20EE200A81ED010A06B00122E4
:10248000BDE8F04101490848FFF76CBE000000209C
:10249000300000200E5C000800A00C4700A00C4794
:1024A0000000C84290080020441C00202DE9F043A1
:1024B00087B014216846FDF7CFFE3148002501683A
:1024C00041F004010160016801F004010591016817
:1024D00041F080010160016801F08001059101680F
:1024E00041F001010160016801F0010105910168FD
:1024F00041F002010160016801F0020105910168EB
:1025000041F010010160016801F0100105910168BE
:1025100041F0080101600068DFF8688000F0080001
:102520004FF4F0440590012221464046FEF78EFB11
:10253000DFF854904FF48057002239464846FEF7A2
:1025400085FB009401AA0124022682E870006946F6
:102550004046FEF783FACDE9007469464846CDE966
:102560000245FEF77BFA0820CDE90006CDE90245D9
:10257000694604940548FEF771FA07B0BDE8F08398
:1025800030380240000C02400000024000040240CB
:1025900010B596B000240F941094119412941394D3
:1025A0001C2168461494FDF757FE202107A8FDF76B
:1025B00053FE2E482C4901605F21C0E9011444F606
:1025C0001F61C0E903148021C0E90541FEF76CFFDB
:1025D00008B1FEF7E6F94FF480500F900FA9234899
:1025E000FFF72AF808B1FEF7DCF92048FFF7B9FA3F
:1025F00008B1FEF7D6F9139413A91C481494FEF7FA
:10260000ABFE08B1FEF7CDF96020CDE900040294DD
:102610000394049405940822694614480694FFF72D
:102620003AFA08B1FEF7BDF94FF4FA7001900C22A6
:1026300069460E48FFF72FFA08B1FEF7B2F9079482
:10264000089409944FF400500A94CDE90B4007A96F
:1026500006480E94FEF756FE08B1FEF7A2F90348AD
:10266000FFF7C4F916B010BD00000140241B002084
:1026700010B586B000241848009401940294039485
:10268000049414490594016040F2DF11C0E901147B
:1026900042F20F71C0E9031480218161FEF704FF4B
:1026A00008B1FEF77EF94FF48050009069460A4861
:1026B000FEF7C2FF08B1FEF774F9049404A90648B6
:1026C0000594FEF749FE002801D0FEF76AF906B02E
:1026D00010BD0000000400406C1B002010B58CB041
:1026E00024216846FDF7B8FD0024174809941549D0
:1026F0000A94C0E9001444F62061C0E90241802137
:10270000046181610320CDE900040120CDE90204C8
:102710000F210491CDE90540CDE9074169460A48FA
:10272000FEF7F8FF08B1FEF73CF9099409A906483D
:102730000A94FEF711FE002801D0FEF732F90CB022
:1027400010BD0000000C0040B41B002010B596B076
:1027500000240F9410941194129413941C2108A82F
:102760001494FDF779FD20216846FDF775FD294891
:10277000274901605F21C0E9011444F61F61C0E9E7
:1027800003148021C0E90541FEF78EFE08B1FEF773
:1027900008F94FF480500F900FA91E48FEF74CFF28
:1027A00008B1FEF7FEF81B48FFF7DBF908B1FEF7AA
:1027B000F8F8139413A917481494FEF7CDFD08B147
:1027C000FEF7EFF86020CDE908040A940B940C940E
:1027D0000D94082208A90F480E94FFF75CF908B180
:1027E000FEF7DFF800944FF40050CDE90440029466
:1027F00001940394694607480794FEF783FD08B1E6
:10280000FEF7CFF80348FFF7F1F816B010BD00004F
:1028100000040140FC1B00200C4810B50A4901606F
:102820004FF461314160002181600422C160C0E940
:1028300004128161C161FFF7BDFB002803D0BDE830
:102840001040FEF7AEB810BD00500040441C002000
:102850000C4810B50A4901604FF4E1314160002194
:1028600081600C22C160C0E904128161C161FFF77F
:10287000A1FB002803D0BDE81040FEF792B810BDC0
:10288000001001408C1C00200C4810B50A49016062
:102890004FF416514160002181600C22C160C0E9F3
:1028A00004128161C161FFF785FB002803D0BDE8F8
:1028B0001040FEF776B810BD00440040D41C002044
:1028C000FEE7FEE730B40021084B0A465FF0000047
:1028D00003EBC004401CC0B262548028F8D3491CEA
:1028E000C9B20829F2D330BC00F0AEB8D00B00203A
:1028F00010B500F004F8BDE8104000F0A5B810B520
:1029000000218D2000F050F90021142000F04CF936
:102910000021BDE81040AF2000F046B910B57F2877
:1029200016D83F2914D80723A3EBD10301F00701E0
:10293000C1F107040121A140064CDBB204EBC00049
:10294000002AC25CC9B201D00A4300E08A43C254E3
:1029500010BD0000D00B002070B53A4D4FF48054EC
:10296000002221462846FEF771F901222146284619
:10297000FEF76CF90021AE2000F016F90021D520F9
:1029800000F012F90021502000F00EF90021A820DB
:1029900000F00AF900213F2000F006F90021D320C1
:1029A00000F002F90021084600F0FEF80021402066
:1029B00000F0FAF800218D2000F0F6F80021142034
:1029C00000F0F2F80021202000F0EEF800210220B3
:1029D00000F0EAF80021A12000F0E6F80021C02074
:1029E00000F0E2F80021DA2000F0DEF800211220E9
:1029F00000F0DAF80021812000F0D6F80021EF2065
:102A000000F0D2F80021D92000F0CEF80021F1200A
:102A100000F0CAF80021DB2000F0C6F800213020C9
:102A200000F0C2F80021A42000F0BEF80021A6208A
:102A300000F0BAF80021AF2000F0B6F8BDE8704011
:102A4000FFF740BF000C024070B5114E002400BFDC
:102A500004F1B000C0B2002100F0A6F80021084641
:102A600000F0A2F80021102000F09EF85FF00005B1
:102A700006EBC5000121005D00F096F86D1CEDB27B
:102A8000802DF5D3641CE4B2082CE1D370BD0000A6
:102A9000D00B00202DE9FF4F203A1F460C468946F7
:102AA00002F0FF0A0025DDF834B032E00C2F09D027
:102AB0001A4901EB0A104FF00008465D300607D5B1
:102AC0005A4609E016490AEB4A0001EB8000F2E79A
:102AD000BBF1000F12D0002221460098FFF71EFF25
:102AE0007006641C060EE4B2A4EB0900B84207D1DC
:102AF00000984C46401CC0B2009008E00122EBE771
:102B000008F1010000F0FF08B8F1080FD6D36D1CE2
:102B1000EDB2BD42CAD3BDE8FF8F0000846100085A
:102B2000105D00087FB505460C4610EE100AFDF753
:102B300044FD41EC100B08A153EC102B684600F04B
:102B400015FC694606A000F001FC6A4621462846AD
:102B500000F00AF87FBD0000252E3266000000005C
:102B6000252E32660A000000F8B516460D460446CA
:102B7000012714E07A2C02D900241035EDB23A2D49
:102B800003D900242546FFF79DFE009732780C23D9
:102B900029462046FFF77EFF0834E4B2761C3078E1
:102BA0000028E7D1F8BD00002DE9F047184E054692
:102BB0004FF4006909B1012200E000224946304685
:102BC000FEF744F800244FF400584FF480470022E9
:102BD00039463046FEF73AF8280601D5012200E0D2
:102BE000002241463046FEF731F801223946304690
:102BF000FEF72CF86806641C050EE4B2082CE6D338
:102C000049463046BDE8F0470122FEF71FB80000F4
:102C1000000C02407047000008210148FEF7E4BBA9
:102C2000FC1B002040426FF01D01884201DA08467B
:102C300002E01E2800DD1E20064900EB400000EBEC
:102C4000D07040100968C0EB001000F59660C863B2
:102C500070470000FC1B002070470000BDEEC00A5A
:102C6000084810EE101A01601E2902DD1E210160C5
:102C700004E06FF01D02914200DA02600068FFF785
:102C8000D1BF000008000020BDEEC00A10EE100AFF
:102C9000FFF706BBFDF7E6BF30B593B030216846BD
:102CA000FDF7DAFA14210CA8FDF7D6FA1D48002525
:102CB000016841F080510160006800F0805011907F
:102CC0001948016841F4804101600068022400F461
:102CD0008040119001200090000401908001CDE916
:102CE000064008200890C020CDE9090404200B907C
:102CF0006846FEF73BF908B172B6FEE70CA90F2053
:102D000081E831004FF4A0500F904FF480501090A4
:102D100003210CA8FEF740F8002801D072B6FEE7A8
:102D200013B030BD403802400070004002480168D6
:102D300041F470010160704788ED00E00148FEF742
:102D4000BDBD00006C1B00200148FEF7B7BD0000B0
:102D5000B41B0020F0B50268294C2A4D2A4E2B4F97
:102D60002B4B4FF0804CA04209D0604507D0A842C1
:102D700005D0B04203D0B84201D0984204D122F02D
:102D8000700E4A6842EA0E02A0421BD0604519D07C
:102D9000A84217D0B04215D0B84213D0984211D0F3
:102DA0001C4DA8420ED01C4DA8420BD01B4DA84272
:102DB00008D01B4DA84205D01A4DA84202D01A4D8A
:102DC000A84203D122F44075CA682A434D6922F013
:102DD00080022A4302608A68C2620A688262A04254
:102DE00001D0984201D10969016301214161016962
:102DF000C90703D0016921F001010161F0BD0000A4
:102E0000000001400004004000080040000C0040A9
:102E100000040140004001400044014000480140DE
:102E200000180040001C00400020004010B501F0D8
:102E30001F030121046A99408C430462016A9A408D
:102E40001143016210BD10B501F00F030421046AA3
:102E500099408C430462016A9A401143016210BD9B
:102E600010B5846842EA032224F47F440A432243D3
:102E7000826010BD826822F070020A4342F00701AE
:102E800081607047F0B5036A026A22F001020262B3
:102E900042688469124E24F073050C682C4323F0B9
:102EA00002058B682B430D4DA84201D0B04205D1DD
:102EB00023F00807CB683B4323F00403A84201D06A
:102EC000B04205D14D6922F4407215438A692A4304
:102ED00042608461496841630362F0BD00000140C3
:102EE00000040140F0B5026A036A23F01003036294
:102EF000436884690D6824F4E64444EA05248D6837
:102F000022F0200242EA05120F4D104EA84201D0D5
:102F1000B04206D1CF6822F0800242EA071222F0C6
:102F20004002A84201D0B04207D14D6923F440636A
:102F300043EA85038D6943EA8503436084614968F8
:102F400081630262F0BD0000000001400004014006
:102F5000F0B5026A036A23F4807303624368C469AC
:102F600022F4007224F073050C68124E2C438D6815
:102F700042EA05220E4DA84201D0B04206D1CF68E8
:102F800022F4006242EA072222F48062A84201D0C1
:102F9000B04207D14D6923F4405343EA05138D69CC
:102FA00043EA05134360C4614968C1630262F0BD2E
:102FB000000001400004014030B5046A026A22F4B6
:102FC000805202624268C3690D6823F4E64343EA13
:102FD00005238D6824F4005444EA0534084DA842C2
:102FE00002D0084DA84204D14D6922F4804242EA41
:102FF00085124260C36149680164046230BD00000B
:10300000000001400004014010B5036A046A24F086
:1030100001040462846924F0F00444EA021423F0F9
:103020000A020A438461026210BD10B5036A046A91
:1030300024F010040462846923F0A00324F4704493
:1030400044EA023243EA01118261016210BD0000CC
:103050000148FEF777BE0000441C002010B5806BCD
:103060000021C185C184FEF76BFE10BD01680C31E3
:1030700051E8002F22F4907241E80023002BF5D193
:103080000168143151E8002F22F0010241E80023C9
:10309000002BF5D1016B012909D101680C3151E8F0
:1030A000002F22F0100241E80023002BF5D120214F
:1030B00080F8421000210163704708B590F8421073
:1030C000222901D0022008BD82684FF480539A4221
:1030D00001D1016921B1816A9A421BD04AB10AE04B
:1030E0000268816A5268C2F308020A80816A891CF8
:1030F00008E0026972B10268526802F07F020A7049
:10310000816A491C8162C18D491E0904090CC1856F
:1031100003D01BE002685268F1E70168CA6822F038
:103120002002CA600168CA6822F48072CA6001681D
:103130004A6922F001024A61202180F842100021F0
:103140004163026B012A03D0FFF71AF8002008BD83
:10315000016301680C3151E8002F22F0100241E8B0
:103160000023002BF5D101680A68D20602D50A684F
:1031700049680091818DFEF7E2FDE7E770B50446EE
:1031800000680169E26821F440511143016121693D
:10319000A068E26908436169114308432168CA686D
:1031A00049F20C639A430243CA6020684169A269EC
:1031B00021F440711143416131492068884202D0B5
:1031C0003049884202D1FDF791FE01E0FDF77EFE15
:1031D000E2690023192164253226B2F5004F6268A6
:1031E00028D0A0FB0101930F9200FCF7EBFF0146F2
:1031F000B0FBF5F06FF01802504301EB800006EBD6
:103200000010B0FBF5F000F0F002B1FBF5F002EBBE
:103210000012B1FBF5F06FF01803584301EB80008A
:1032200006EB0010B0FBF5F000F00F002168104431
:10323000886070BDA0FB010192185B41FCF7C2FFE2
:103240000146B0FBF5F00201B1FBF5F06FF0180399
:10325000584301EB800006EBC000B0FBF5F000F036
:10326000F80002EB4002B1FBF5F0584301EB80009F
:1032700006EBC000B0FBF5F000F00700D6E7000059
:10328000001001400014014081628285C285002146
:103290004164222180F84210016921B10168CA68A5
:1032A00042F48072CA6001684A6942F001024A61D0
:1032B0000068C16841F02001C160002070472DE91D
:1032C000F843984617460D460446089E24E0701CB5
:1032D00022D0FDF7C1FCA0EB0800B0421AD8CEB155
:1032E0002068C168490717D5802D15D0402D13D00F
:1032F0000168C94309070FD40168002540680090A0
:103300002046FFF7B3FE0820606484F84050012097
:10331000BDE8F8830320FBE72068006835EA000079
:1033200004D00020B842D2D00020F1E70120F9E714
:103330000148FEF707BD00008C1C00200148FEF785
:1033400001BD0000D41C0020FEE700000FB4054BB7
:1033500010B503A9044A029801F0DAFD10BC5DF82B
:1033600014FB0000CD560008280000200FB4084BC5
:1033700010B504A902AA039801F0CAFD044602A9E7
:10338000002002F048F9204610BC5DF814FB000054
:103390001756000803B401984100009850EAC12074
:1033A00018BF04204A0D18BF40F0010040F2FF7220
:1033B000B2EB515F08BF40F00200012808BF0520B2
:1033C00002B070470907090E002804DB00F1E02075
:1033D00080F80014704700F00F0000F1E02080F842
:1033E000141D70470000000010B5B94A2DED020B06
:1033F0002DED0C8B82B00F9921F000409FEDB6CBE4
:1034000090422CDBA0F140530E9AA3F17F631A4344
:103410000FD0B349884202DC16D10E98A0B19DEDC1
:103420000E0B02B0BDEC0C8B02B0BDE8104001F0F9
:1034300053BC0029C1BF9FEDAC0B02B0BDEC0C8B9F
:1034400002B0C8BF10BD16E0012001F099FC02B027
:10345000BDEC0C8B02B0BDE8104001F051BCA44A99
:103460009FEDA59B9FEDA6AB90425EDAA6499FED2E
:10347000A8CB814208DBB0EE4C0AF0EE6C0A02B039
:10348000BDEC0C8B02B010BD9DED0E0B53EC102B60
:1034900051EC100BFCF79FFF41EC180B9E480621E6
:1034A000B0EE480AF0EE680A784401F0E9FA53EC0D
:1034B000182B51EC100BFCF78EFF41EC1B0B9748BF
:1034C000B0EE480AF0EE680A0421784401F0D8FA18
:1034D00053EC182B51EC100BFCF77DFF53EC192B20
:1034E000FCF7D2FE41EC100B51EC1B0B53EC102BF4
:1034F000FCF7E3FF41EC100B53EC102B9DED0E0B92
:1035000051EC100BFCF767FF53EC1A2BFCF760FF34
:103510009DED0E1B53EC112BFCF75AFF53EC1C2BAB
:10352000FCF756FF41EC100BA9E79FED7D8B9FED5B
:103530007EBB9DED0E0B002953EC192B51EC100BAB
:1035400052DAFCF7A1FE53EC182BFCF744FF41ECD8
:10355000180B77480621B0EE480AF0EE680A784466
:1035600001F08EFA53EC182B51EC100BFCF733FFE3
:1035700041EC1D0B6F48B0EE480AF0EE680A0421DA
:10358000784401F07DFA53EC182B51EC100BFCF74A
:1035900022FF53EC192BFCF777FE41EC190B51EC91
:1035A000180B02F0FDFA41EC180B53EC192B51ECFF
:1035B0001D0BFCF782FF53EC182BFCF70CFF53ECB0
:1035C0001A2BFCF702FF41EC100B51EC180B53ECDB
:1035D000102BFCF759FE53EC1B2BFCF7FCFE53ECB5
:1035E0001C2BFCF7F5FE6DE0FCF7F2FE53EC182BFC
:1035F000FCF7F1FE41EC180B02F0D2FA41EC1A0B89
:1036000000208DED00AB00909DED000B51EC1A0BEE
:1036100053EC102BFCF738FE9DED000B41EC1C0B1E
:1036200053EC102B51EC100BFCF7D5FE53EC182B80
:10363000FCF7CEFE53EC1C2BFCF73FFF41EC1C0BC0
:103640003D48B0EE480AF0EE680A0621784401F0E1
:1036500017FA53EC182B51EC100BFCF7BCFE41ECA5
:103660001D0B3648B0EE480AF0EE680A0421784493
:1036700001F006FA53EC182B51EC100BFCF7ABFEE3
:1036800053EC192BFCF700FE41EC100B51EC1D0B19
:1036900053EC102BFCF711FF53EC1A2BFCF79BFE9D
:1036A00053EC1C2BFCF7F0FD41EC100B53EC102BF2
:1036B0009DED000B51EC100BFCF7E6FD53EC1B2BC2
:1036C000FCF789FE41EC100BD9E600000000000079
:1036D0000000F03F00000000182D4454FB21094079
:1036E0000000F07F0000000000000000000000006B
:1036F0000000E03F00000000000000000000F03F7C
:10370000075C143326A6913C0000603C00000000DA
:10371000182D4454FB21F93FE4320000F23200003E
:10372000000000000000E03F00000000000000403A
:103730002E3200003C320000403100004E310000CB
:1037400010B52F499FED2C1B2DED020B84B0059871
:1037500020F000408842D8BF9DED040B2DDD2949A3
:10376000884209D1049840B94FF0010001F008FBEC
:1037700001F0C6FA06B010BD05DB9DED040B01F0AB
:10378000ABFA06B010BD68469DED040B00F0A4FE38
:1037900010F0030004BF9DED021B9DED000B0CD04B
:1037A00001280ED09DED021B9DED000B022817D0C5
:1037B000012001F0E1F906B010BD01F0A9F806B052
:1037C00010BD9DED021B9DED000B012001F0D4F911
:1037D00051EC100B81F0004106B041EC100B10BD14
:1037E00001F096F851EC100B81F0004106B041EC6D
:1037F000100B10BD000000000000000000000000E1
:10380000FB21E93F0000F07F2DE9F04D2DED040B89
:103810002DED0E8B96B0DDE92550279CDDF890A0AC
:1038200025F0004624F00048BAF1000F14BF012132
:10383000002101EB4502FC4953184A1093422AD358
:10384000002814BF0123002303EB44030B44F74972
:103850008B4220D358EA00019FEDF59B76D0DFF82C
:10386000D8B35D4503D1BAF1000F05D188E0BAF1B4
:10387000000F08BF002100D0012101EB450111F527
:10388000001F08D8002814BF0121002101EB4401CA
:1038900011F5001F0BD99DED261B9DED240B16B0D5
:1038A000BDEC0E8B04B0BDE8F04D01F01FBA00274F
:1038B000002DBCBFE149884521DAE1498845A8BF10
:1038C00002271CDAC3451ADCDE4901EB2851142912
:1038D00008DDC1F1340220FA02F101FA02F282425B
:1038E0000DD108E058B9C1F1140228FA02F101FA29
:1038F00002F2424503D101F00101C1F1020756EA8B
:103900000A0124D1002C22DA002D18BF022F01D089
:10391000012F0AD0022001F033FA16B0BDEC0E8B55
:1039200004B0BDE8F04D01F0BFB9022001F028FA63
:1039300001F0BAF951EC100B81F0004141EC100B91
:1039400016B0BDEC0E8B04B0BDE8F08D18E09FED15
:10395000BEAB9FEDBF8B002871D1B848804522D106
:1039600005F1804010F5801008BFBAF1000F07D0B4
:10397000B3450ADC002CA8BF9DED260BE0DA0DE074
:10398000B0EE490AF0EE690ADAE7002C06DA9DED9E
:10399000260B51EC100B81F000416FE0AE487844EB
:1039A00090ED000BCCE7D8454DD1002C48DA2EB174
:1039B00086423AD1BAF1000F42D126E0BAF1000FA7
:1039C00013D0022001F0DCF901F0AAF98DED020B11
:1039D0009DED240B8DED000B10EE900A039961F321
:1039E0001E0003909DED020BAAE78DED02AB9DED4D
:1039F000240B1AEE901A10EE900A8DED000B61F375
:103A00001E0003909DED020B9AE78DED028B9DED5C
:103A1000240B18EE901A10EE900A8DED000B61F356
:103A20001E0003909DED020B8AE709DA9DED240B41
:103A300051EC190B53EC102BFCF73FFD1EE020E07E
:103A40009DED240B7CE786421BDAB4F1804F0DD04C
:103A5000A4F10050B0F1FF5013D1002D11DB9DED0A
:103A6000240B51EC100B02F09BF807E09DED240BAA
:103A700053EC102B51EC100B00F0C2BC41EC100BBE
:103A80005EE79DED240B51EC100B01F013FEBAF133
:103A9000000FCDE90E0142D19FED710B46B3A6F1A7
:103AA000E040B0F17F600CD05E4538D1002D00DAE7
:103AB000A7B3022F0CBF01204FF0FF30FCF76CFDC5
:103AC000DCE7002D01DD002C0DDA002D01DD002CDE
:103AD0001FDB002D16DA002C14DB012F08BF9FED31
:103AE000620B3FF42DAFB0EE4A0AF0EE6A0A27E708
:103AF000022F18BF002D0CD0012F0AD1002DFFF688
:103B00001FAF06E0002DB8BF002C08DA012F3FF4EC
:103B100017AFB0EE480AF0EE680A11E71BE001208B
:103B200000EBE57050EA070115D0791EB0EE498A26
:103B3000F0EE698A084308BF9FED4D8B4E48002583
:103B4000804570DD4D494E48884514DDB0420DDB9F
:103B5000002C19DB2FE0012001F012F916B0BDECAA
:103B60000E8B04B0BDE8F04D01F0CAB8B34502DCDD
:103B7000002C09DC1FE0864202DA002C1BDA03E08D
:103B80005E452BDD002C16DD022001F0F9F801F076
:103B9000C7F88DED020B53EC1A2B51EC180BFCF708
:103BA0001AFCCDE900010399019861F31E0003900E
:103BB0009DED020BC4E6022001F0E2F801F0C0F82E
:103BC00010EE901A18EE900A8DED020B8DED008B21
:103BD00061F31E0003909DED020BB1E69DED0E0B0F
:103BE00053EC192B51EC100BFCF7EFFB9FED260B60
:103BF000CDE9080153EC102B9DED080B51EC100B97
:103C0000FCF7E9FB9FED221B53EC112BFCF7E0FBCB
:103C10009DED081B53EC112BFCF7DDFB9FED1E1BEC
:103C200053EC112B3CE08CE0FFFF1F00FFFF0F0067
:103C3000000000000000F03F0000F03F0000F07FB7
:103C40000000404301FCFFFF000000000000F07F87
:103C50000000000000000000F62E00000000000040
:103C60000000000000000080000000000000F0FFE5
:103C7000000000000000F0BF0000E0410000F04341
:103C8000FFFFEF3F00000000000000000000D03FF9
:103C9000555555555555D53F000000000000E03FF3
:103CA000FCF796FB9DED080B41EC1A0B53EC102B27
:103CB00051EC100BFCF78FFB53EC1A2BFCF78BFB32
:103CC00041EC1A0B9FEDFE0B53EC102B9DED080BF6
:103CD00051EC100BFCF77FFB41EC1B0B9FEDFA0B3B
:103CE00051EC1A0B53EC102BFCF775FB41EC1A0B43
:103CF0009FEDF70B53EC102B9DED080B51EC100BC7
:103D0000FCF769FB53EC1A2BFCF75FFB41EC1A0B39
:103D100051EC1B0B53EC1A2BFCF7B6FA0690CDE9CD
:103D200006519DED060B53EC1B2B51EC100BFCF7D1
:103D30004CFB53EC1A2BFCF74BFB41EC100B00F047
:103D4000A1B90020B6F5801F0EDA9FEDE30B53EC0E
:103D5000102B9DED0E0B51EC100BFCF73CFBCDE94D
:103D60000E016FF034000E4600EB2650A0F2FF3734
:103D7000C6F31300DA4940F07F6646F040568842A9
:103D8000D8BF002408DDD7498142C8BF012403DC25
:103D90000024A6F580167F1CD348784400EBC400AD
:103DA0000F9690ED00CB9DED0E0B53EC1C2B51ECC0
:103DB000100BFCF70AFB9DED0E0B41EC1B0B53ECBB
:103DC0001C2B51EC100BFCF75FFA41EC100B51EC83
:103DD000190B53EC102BFCF770FB41EC1D0B51EC55
:103DE0001B0B53EC1D2BFCF7F6FA41EC1A0BBF48EA
:103DF0008DED10AB7844109590ED000B4FF0005016
:103E000040EA660000EB84408DED080B00F50020D1
:103E100009909DED080B53EC1C2B51EC100BFCF79B
:103E2000D4FA9DED0E1B53EC112BFCF7D1FA41ECAB
:103E3000100B53EC102B9DED100B51EC100BFCF7FD
:103E4000CAFA9DED080B41EC1C0B53EC102B9DEDB9
:103E5000100B51EC100BFCF7BEFA53EC1B2BFCF7CC
:103E6000B7FA53EC1C2BFCF7B0FA53EC1D2BFCF704
:103E7000B2FA41EC1C0B53EC1A2B51EC1A0BFCF769
:103E8000AAFA41EC1B0B9A480621B0EE4B0AF0EE61
:103E90006B0A784400F0F4FDB0EE401AF0EE601AC0
:103EA000B0EE41DAF0EE61DA53EC1B2B51EC1B0B58
:103EB000FCF791FA53EC1D2BFCF78DFA9DED100BDE
:103EC00041EC1B0B53EC1A2B51EC100BFCF7DCF9FB
:103ED00053EC1C2BFCF77FFA53EC1B2BFCF7D4F9AB
:103EE0009DED100B41EC1B0B53EC102B51EC100B08
:103EF000FCF771FA41EC1D0B9FED7FEB53EC1E2B91
:103F0000FCF7C2F953EC1B2BFCF7BEF90890CDE986
:103F100008519DED080B53EC1E2B51EC100BFCF7D8
:103F200054FA53EC1D2BFCF750FA53EC1B2BFCF707
:103F30004FFA9DED080B41EC1D0B53EC102B9DED42
:103F4000100B51EC100BFCF746FA41EC1B0B53EC39
:103F50001A2B51EC1D0BFCF73EFA9DED080B41ECC2
:103F60001A0B53EC102B51EC1C0BFCF734FA53ECEE
:103F70001A2BFCF789F941EC1A0B51EC1B0B53EC93
:103F80001A2BFCF781F90C90CDE90C519DED0C0B2F
:103F900053EC1B2B51EC100BFCF717FA53EC1A2BBC
:103FA000FCF716FA41EC1B0B9FED550B53EC102B55
:103FB0009DED0C0B51EC100BFCF70DFA41EC1A0BBC
:103FC0009FED510B51EC1B0B53EC102BFCF703FA3C
:103FD00041EC1B0B9FED4E0B53EC102B9DED0C0B8E
:103FE00051EC100BFCF7F7F953EC1B2BFCF74CF9D9
:103FF00041EC100B4848784400EBC40090ED001BE6
:1040000051EC100B53EC112BFCF73EF941EC1B0B60
:104010003846FCF7C1FACDE9080153EC1B2B51ECF3
:104020001A0BFCF731F941EC100B3C48784400EBDB
:10403000C40090ED00CB51EC100B53EC1C2BFCF7A3
:1040400023F99DED081B53EC112BFCF71DF906908D
:10405000CDE906519DED080B53EC102B9DED060BA1
:1040600051EC100BFCF7B1F953EC1C2BFCF7ADF93C
:1040700053EC1A2BFCF7A9F953EC1B2BFCF7A8F90E
:1040800041EC100B9DED261B53EC102B8DED001B0E
:1040900000959DED260B51EC100BFCF79CF99DED66
:1040A000000B41EC1A0B53EC102B9DED260B51EC41
:1040B000100BFCF78AF99DED061B53EC112B2FE03A
:1040C000000000604715F73FFE822B654715F73F5C
:1040D00044DF5DF80BAE543E00000000000040439A
:1040E0008E9803007AB60B00422A0000A02A000036
:1040F0007A290000000000000000000000000840D5
:10410000000000E009C7EE3FFD033ADC09C7EE3FBF
:10411000F5015B14E02F3EBE06280000C02700001A
:10412000FCF759F953EC1A2BFCF7AEF89DED060B92
:1041300041EC1A0B53EC102B9DED000B51EC100BC6
:10414000FCF749F9CDE90C019DED0C0B51EC1A0B74
:1041500053EC102BFCF798F8CDE902010C46AA4964
:104160008C422FDB611A084318D19DED0C0B53ECE8
:10417000102B9DED020B51EC100BFCF726F941ECD6
:104180001B0B9FEDA30B51EC1A0B53EC102BFCF700
:104190007BF853EC1B2BFCF723FA2DD2022000F006
:1041A000EFFD00F0BDFD10EE901A18EE900A8DEDB7
:1041B000020B8DED008B61F31E0003909DED020B51
:1041C000FFF7BEBB944A24F00041914214D39349B7
:1041D000214408437FF4EFAC9DED0C0B53EC102B06
:1041E0009DED020B51EC100BFCF7EFF853EC1A2B82
:1041F000FCF7F6F97FF6DFAC24F000408849894AE5
:10420000002601EB205182422BDA481C4FF480112A
:1042100021FA00F02044844AC0F30A517A44A1F202
:10422000FF3192ED000B814A8DED080BCA4020EA68
:104230000202C0F3130040F48010C1F1140120FA0F
:1042400001F60992002CB8BF76429DED080B53ECA5
:10425000102B9DED0C0B51EC100BFCF7B6F8CDE9D3
:104260000C019DED0C0B51EC1A0B53EC102BFCF7D1
:104270000BF89FED6F0B0890CDE9085153EC102B14
:104280009DED080B51EC100BFCF7A5F841EC1B0B56
:104290009FED690B53EC102B9DED080B51EC100BAF
:1042A000FCF799F89DED0C0B41EC1C0B53EC102B1B
:1042B0009DED080B51EC100BFCF787F853EC1A2B13
:1042C000FCF786F89FED5E1B53EC112BFCF783F88F
:1042D00053EC1C2BFBF7D8FF41EC1A0B51EC1B0BDA
:1042E00053EC1A2BFBF7D0FFCDE902019DED020B39
:1042F00053EC1B2B51EC100BFCF767F853EC1A2B0B
:10430000FCF766F89DED020B41EC1A0B53EC102BF9
:1043100051EC100BFCF75FF8CDE908014A489DED20
:10432000080B0521784400F0ABFB9DED081B51EC18
:10433000100B53EC112BFCF74EF89DED021B53ECC8
:10434000112BFCF745F8CDE906019DED020B53EC6E
:104350001A2B51EC100BFCF73EF853EC1A2BFBF721
:1043600093FF9FED3B0B41EC1A0B53EC102B9DED93
:10437000060B51EC100BFCF728F89DED060B41ECF9
:104380001B0B53EC102B9DED020B51EC100BFCF7AB
:1043900022F853EC1B2BFCF790F853EC1A2BFCF78C
:1043A00014F89DED021B53EC112BFCF70EF853ECA7
:1043B000192BFCF70DF8CDE9020101EB06500115B0
:1043C0000029C8BF039015DC9DED020B324651EC6D
:1043D000100BFCF714FAFEF7DDFF042808BF00F00D
:1043E000AFFC32469DED020B51EC100BFCF707FAC7
:1043F000CDE902019DED020B51EC180B53EC102B93
:10440000FBF7E9FFFFF73ABB000090400000000017
:10441000FE822B654715973C00CC904000346F3FDF
:1044200001FCFFFF0000E03F78260000FFFF0F00C7
:1044300000000000432EE63F396CA80C615C20BEF2
:10444000EF39FAFE422EE63F18250000000000007A
:10445000000000000000004000B52DED048BB0EE20
:10446000409AF0EE609A83B051EC190BFCF7DEF93C
:1044700041EC180B18EE100A18EE901A8DED008B17
:10448000002818BF0120084320F00040C0F17F60E1
:1044900000F1E040C00F14D019EE101A19EE900A86
:1044A0008DED009B002918BF0121084320F000403A
:1044B000C0F17F6000F1E040C00F04BF012000F0B8
:1044C0005FFCB0EE480A03B0F0EE680ABDEC048B66
:1044D00000BD0000000000002DE9F14F04462DED65
:1044E000020B2DED088B8AB09FEDE70B80ED020BE0
:1044F000139EE74826F0004585420ADC9DED120B2D
:10450000002084ED000B0AB0BDEC088B03B0BDE8C1
:10451000F08FE0489FEDE0AB9FEDE1BBA84247DDA7
:10452000E14F9FEDE39B9FEDE48B9DED120B53EC70
:104530001A2B51EC100B002E1CDDFBF746FF41EC53
:10454000100BBD4208D053EC1B2B51EC100BFBF7AA
:104550003CFFC4E900010BE053EC192B51EC100BAC
:10456000FBF733FF53EC182BFBF72FFFC4E90001D7
:104570000120C8E7FBF788FE41EC100BBD4208D0D4
:1045800053EC1B2B51EC100BFBF77EFEC4E9000132
:104590000BE053EC192B51EC100BFBF775FE53ECB1
:1045A000182BFBF771FEC4E900014FF0FF30AAE7BA
:1045B000C348A84279DB9DED120B51EC100B01F0C2
:1045C00079F841EC180B9FEDC00B53EC102BFBF767
:1045D00002FF9FEDBF1B53EC112BFBF755FEFCF7C1
:1045E000AEF90746FBF7D8FF41EC190B53EC1A2B39
:1045F000FBF7F1FE53EC182BFBF7EAFE41EC180B2E
:1046000053EC1B2B51EC190BFBF7E5FEDFF8C8A2AE
:1046100041EC100B4FEA15580125FA4453EC102BCE
:1046200051EC180BFBF7D1FE032DC4E900013DD07E
:10463000C1F30A5005EB4511A8EB00001139814286
:1046400034DA0AEB051BB0EE48AA9BED000BF0EE46
:1046500068AA53EC102B51EC190BFBF7BCFE41EC94
:104660001B0B51EC1A0B53EC1B2BFBF7AEFE41EC72
:10467000180B51EC1A0B53EC182BFBF7A6FE53EC5E
:104680001B2BFBF7A2FE9BED020B41EC1A0B53EC2C
:10469000102B51EC190BFBF79EFE53EC1A2BFBF77A
:1046A00094FE41EC100B6D1CB8E70EE0002EA8BF85
:1046B0003846BFF628AF94ED000B51EC100B81F09B
:1046C0000041C4E9000178421DE7C6F3130040F43D
:1046D000801EC6F30A50A0F2F530471100F01F0506
:1046E000C5F12000DDF848B0089000200690079042
:1046F0000520EC467949002D07EB0002794408BFFC
:1047000051F8221009D051F8223001EB8201AB4060
:104710004A68089922FA01F11943A1FB0E26A1FB70
:104720000B131A449A4234BF0123002303EB0608FB
:104730000CEB8003D3E901A60E448E4234BF012165
:10474000002192448A4411B1924502D903E0924576
:1047500001D2012100E00021C3E901A641444CF847
:104760002010011EA0F10100C4DC029800F10050ED
:10477000850F0298DDE903678000DDF81480FBF700
:104780000BFF41EC1A0B3046FCF7CCF89FED541BA5
:1047900053EC112BFBF71FFE41EC1B0B3846FCF7CB
:1047A000C1F89FED511B53EC112BFBF714FE41ECAC
:1047B000180B4046FCF7B6F89FED4D1B53EC112B40
:1047C000FBF709FE41EC190B51EC180B53EC192BBC
:1047D000FBF75AFD53EC1B2BFBF756FD53EC1A2B42
:1047E000FBF752FDCDE90801002008909DED080B74
:1047F00053EC1A2B51EC100BFBF7E7FD53EC1B2B82
:10480000FBF7E3FD53EC182BFBF7DFFD53EC192B03
:10481000FBF7DEFD9FED381B53EC112BFBF7DBFDA7
:104820009FED370B41EC180B53EC102B9DED080B53
:1048300051EC100BFBF7CFFD53EC182BFBF724FDCD
:104840009FED310B41EC180B53EC102B9DED080B39
:1048500051EC100BFBF7BFFD53EC182BFBF714FDCD
:1048600041EC100B139810F0004F06D06D4251EC44
:10487000100B81F0004141EC100B284684ED000B39
:1048800041E6000000000000000000000000000001
:10489000FB21E93F7CD9024000004054FB21F93F55
:1048A0003163621A61B4D03DFB21F93F0000000082
:1048B0000000601A61B4D03D7370032E8A19A33BC7
:1048C000FB2139410000000083C8C96D305FE43F1F
:1048D000000000000000E03F82220000D021000024
:1048E000000000000000103E000000000000103C2E
:1048F000000000000000103A182D4454FB21F93D3F
:104900003326A611460B113C00000054FB21F93D53
:1049100010B52DED040B2DED088B82B0B0EE419A51
:10492000F0EE619A0B9820F000449FED4BABB4F190
:10493000795F11DA9DED0A0B51EC100BFBF7FFFFCD
:10494000002801BFB0EE4A0AF0EE6A0A02B0BDECE0
:10495000088B04BF04B010BD9DED0A0B53EC102B67
:1049600051EC100BFBF737FD41EC180B3C480621CE
:10497000B0EE480AF0EE680A784400F081F853EC93
:10498000182B51EC100BFBF726FD9DED0A0B41ECAB
:104990001B0B53EC192B51EC100BFBF71CFD41ECDE
:1049A000190B53EC1B2B51EC180BFBF714FD53ECBC
:1049B000192BFBF70AFD9FED2C0B41EC190B53EC67
:1049C000102B51EC180BFBF706FD41EC100B28489F
:1049D000844210DA53EC192B51EC100BFBF7F5FC69
:1049E00053EC1A2BFBF7F4FC41EC100B02B0BDECBE
:1049F000088B04B010BD1F48A042BCBF9FED1E1B1A
:104A00008DED001B06DBA4F5001001900020009046
:104A10009DED001B51EC100B53EC112BFBF7D5FC5B
:104A20009DED000B41EC180B53EC102B51EC1A0BC5
:104A3000FBF7CBFC41EC1A0B53EC192B51EC180B88
:104A4000FBF7C3FC53EC1A2BFBF7C2FC41EC100B39
:104A5000CCE7000000000000000000000000F03F74
:104A6000EC1E000000000000000000000000E03F1D
:104A70003333D33F0000E93F000000000000D23F85
:104A800070B504462DED028B4D1E00EBC500B0EE57
:104A9000408AF0EE608A90ED000B35F0060017D0EA
:104AA00053EC182B51EC100BFBF795FC41EC100B61
:104AB0006D1E04EBC50090ED001B51EC100B53EC88
:104AC000112BFBF7E1FB41EC100B35F00600E7D1B1
:104AD000022D36D0042D1CD0062D1CBFBDEC028B40
:104AE00070BD53EC182B51EC100BFBF774FC94EDDC
:104AF0000A1B53EC112BFBF7C7FB53EC182BFBF7EE
:104B00006AFC94ED081B53EC112BFBF7BDFB41EC49
:104B1000100B53EC182B51EC100BFBF75CFC94EDD5
:104B2000061B53EC112BFBF7AFFB53EC182BFBF7D9
:104B300052FC94ED040B53EC102BFBF7A5FB41EC5E
:104B4000100B53EC182B51EC100BFBF744FC94EDBD
:104B5000021B53EC112BFBF797FB53EC182BFBF7C5
:104B60003AFC94ED001B53EC112BFBF78DFBBDECD5
:104B7000028B41EC100B70BD31B504462DED040BDA
:104B80002DED0A8BB0EE41BAF0EE61BA0B989DEDB7
:104B90000A0B20F00040B0F1795F0DDA51EC100BF8
:104BA000FEF7F8FB042808BF00F0CAF89DED0A0BD9
:104BB000BDEC0A8B05B030BD53EC102B51EC100B43
:104BC000FBF709FC41EC180B9DED0A0B53EC182B7D
:104BD00051EC100BFBF7FFFB41EC190B2C48B0EE2E
:104BE000480AF0EE680A05217844FFF749FF9FED77
:104BF0002ACBB0EE40AAF0EE60AA9CB353EC1C2B7B
:104C000051EC190BFBF7E7FB41EC1C0B53EC1A2B97
:104C100051EC190BFBF7DFFB9FED210B41EC190B5E
:104C200053EC102B51EC1B0BFBF7D5FB53EC192B62
:104C3000FBF7CBFB53EC182BFBF7CDFB53EC1B2BFB
:104C4000FBF7C3FB53EC1C2BFBF7BFFB9DED0A1BD3
:104C500053EC112BFBF7BCFBBDEC0A8B05B041EC10
:104C6000100B30BDFFE753EC1A2B51EC180BFBF780
:104C7000B2FB53EC1C2BFBF707FB53EC192BFBF798
:104C8000AAFB9DED0A1B53EC112BFBF7FDFAE3E7A2
:104C90007C1D000000000000495555555555C5BF05
:104CA000000000000000E03F9FED070B10B553EC43
:104CB000102B9FED070B51EC100BFBF7FEFB41ECAB
:104CC000100B10BD000000000000000000000000FC
:104CD000000000000000F03F10B553EC102B51EC29
:104CE000100BFBF7D1FA41EC100B10BD10B553ECD3
:104CF000112B51EC100BFBF7C7FA41EC100B10BD58
:104D00009FED050B10B553EC102B51EC100BFBF77E
:104D1000D4FB41EC100B10BD0000000000000000AF
:104D20009FED050B10B553EC102B51EC100BFBF75E
:104D300052FB41EC100B10BD0000000000000070A1
:104D40009FED050B10B553EC102B51EC100BFBF73E
:104D500042FB41EC100B10BD0000000000000010F1
:104D600002E008C8121F08C1002AFAD17047704734
:104D7000002001E001C1121F002AFBD17047000092
:104D800001490860704700002C0000202DE9FF5FFA
:104D900082B00021DDE90430020DDDF840B00343AC
:104DA00018D044F61050A2F2FF3242431514119865
:104DB00001281FD0A5EB0B00401C5FEA000A4FF052
:104DC00000064E4FDFF83891B046504615D5CAF16F
:104DD000000413E0119801244AA3012801D16FEACD
:104DE0000B010298119AC0E90031C0E9024206B0F5
:104DF000BDE8F09FCBF10000DFE704460021404A08
:104E0000491842EB0450CDE9001012E0E00707D04A
:104E100032463B4640464946FBF7DDFA8046894626
:104E200032463B4610461946FBF7D5FA06460F4672
:104E30006410002CEAD1DDE90401DDE90023BAF1B8
:104E4000000F06DAFBF7C7FA42464B46FBF7C3FAF8
:104E500005E0FBF732FB42464B46FBF72EFB0446D0
:104E60000E460022284BFBF7BBFB03D84FF0FF3068
:104E7000014607E00022254B20463146FBF704FAA5
:104E8000FBF725FD102409E0002C0ADB0A22002391
:104E9000FBF798F9039B30321A55641E50EA010261
:104EA000F2D1641C039AC4F111031444119A012A2B
:104EB00003D0012208430DD10AE0084304D00020AA
:104EC0004FF0110B119072E7A3EB0B056D1E0DE077
:104ED0005B4504DD4FF0000205F1010504E003DA53
:104EE0004FF00002A5F10105002AECD002981199BB
:104EF000C0E90231C0E9004579E700000000144034
:104F00000000F03F300000000000F0430000E03FF0
:104F10002DE9FF4F95B09A46884606460025EEE1FA
:104F2000252877D100242746F94A0121039400E07F
:104F3000044316F8013F203B01FA03F01042F7D179
:104F400030782A2811D06FF02F033078A0F130028A
:104F5000092A16D8039A44F0020402EB820203EBFA
:104F600042021044761C0390EFE758F8042B03929A
:104F7000002A03DA504244F40054039044F002043F
:104F8000761C30782E2816D116F8010F44F0040450
:104F90002A280DD06FF02F023078A0F13003092BB2
:104FA00009D807EB870302EB4303C718761CF3E726
:104FB00058F8047B761C30786C280FD006DC4C281F
:104FC00017D068280DD06A2814D104E0742810D0B6
:104FD0007A280FD10DE044F400140AE044F4801460
:104FE00001E044F440147278824202D104F5801446
:104FF000761C761C307866280BD013DC582877D0C6
:1050000009DC002875D04528F6D04628F4D047287A
:105010001AD193E118E0632835D0642879D0652847
:1050200012D18BE1702873D008DC6728F1D0692891
:105030006FD06E280DD06F2806D1ACE073282CD02D
:10504000752874D0782853D05246179990476D1C14
:1050500054E1C4F30250022809D003280DD0D8F837
:10506000001004280DD00D6008F1040846E1D8F8BE
:105070000010EA17C1E90052F6E7D8F800100D80D9
:10508000F2E70D70F0E718F8041B8DF8001000200F
:105090008DF80100EB46012003E058F804BB4FF007
:1050A000FF3061074FF0000102D40DE009F101016A
:1050B0008946B9420FDA8145F8DB1BF8091000294F
:1050C000F4D108E009F1010189468142FADB1BF8BD
:1050D00009100029F6D103985346A0EB0907214691
:1050E0003846179A00F080FA284400EB090507E0DB
:1050F00044E008E10DE01BF8010B52461799904778
:10510000B9F10109F7D2534621463846179AF2E021
:1051100039E00A21C4F302524FF0000B0091022A39
:1051200006D058F8040BC117032A09D00AE023E07F
:1051300008F1070020F00702F2E80201904605E0BE
:1051400000B2C117042A01D140B2C117002906DA02
:105150000A460021404261EB02012D2202E02205B5
:1051600004D52B228DF80420012203E0E20701D0B0
:105170002022F7E7914657E00A2100E010214FF086
:10518000000B00910BE010214FF0000B44F00404E1
:105190000827009103E008204FF0000B0090C4F3B3
:1051A0000252022A05D058F8040B0021032A08D025
:1051B00008E008F1070020F00702F2E8020190463B
:1051C00003E080B2042A00D1C0B24FF000092207E8
:1051D0002AD53278702A07D0DDF800C08CF0100C88
:1051E0005CEA0B0C05D00EE040228DF80420012271
:1051F00008E050EA010306D030238DF804308DF822
:10520000052002229146009B83F0080353EA0B031A
:105210000AD150EA010201D1620705D530228DF88A
:1052200004204FF001097F1E3278582A04D039A299
:105230000C920CAA02920BE03BA2F9E75B46009AA3
:10524000FAF7C0FF0C9B9B5C029A521E02921370ED
:1052500050EA0102F2D1029804A9081A00F1200BC9
:10526000600702D524F4803400E001275F4502DDA9
:10527000A7EB0B0000E0002000EB0B01009003986F
:105280004944401A0390E00306D453462146179A36
:10529000039800F0A9F90544002706E001A852464A
:1052A000C05D179990476D1C7F1C4F45F6DBE003EE
:1052B0000CD553462146179A039800F095F90544FA
:1052C00004E030205246179990476D1C0099481E03
:1052D00000900029F5DC08E0029802995246007817
:1052E000491C0291179990476D1CBBF10001ABF16D
:1052F000010BF1DC5BE100F065F90544761C3078C8
:1053000000287FF40DAE19B02846BDE8F08F0000EC
:10531000092801003031323334353637383961628B
:10532000636465660000000030313233343536374F
:10533000383941424344454600000000600700D42C
:10534000062708F1070020F00700F0E80223804656
:1053500003F0004C5FEA0C0001D097A009E02005A3
:1053600001D596A005E0E00701D095A001E0AFF2DD
:105370004C001390307823F0004365280CD006DCF5
:10538000452809D046281DD047287FD13BE0662814
:1053900018D067287AD136E00021112F01DB1120C7
:1053A00000E0781CCDE9000104A90CA8FFF7EEFC91
:1053B000DDE90D010C9A4FF0000B07F10109109285
:1053C00000914EE04FF000400097CDE9011004A994
:1053D0000CA8FFF7DBFCDDE90D020C9B0F994FF0E9
:1053E000000B91461093009211B9791C00EB010952
:1053F000B7EB090003D4C0F1FF3B07F10109A9EBAA
:105400000700019042E0012F00DA01270021112F4F
:1054100001DD112000E03846CDE9000104A90CA807
:10542000FFF7B4FCDDE90D010C9A00914FF0000B81
:10543000B946109221070FD4009A4A4503DA9146E3
:1054400001E0A9F10109B9F1010F05DD109AA9F1F7
:105450000101515C3029F4D0B84202DA10F1040F96
:1054600003DA0121CDE9011010E0002803DC8344B8
:10547000A9EB000102E0411C494500DD8946A0EB93
:105480000B00401C01904FF000400290200705D413
:105490000198484502DB4FF0FF30019000208DF865
:1054A0004B0002980DF14B07B0F1004F25D00220C0
:1054B0000C902B200D90029800280CDA40420290AC
:1054C0002D200D9007E00A210298FBF7BDF830313E
:1054D000029007F8011D0C99481E0C900029F2DC7F
:1054E00002980028EFD1791E0D980870307800F0EE
:1054F000200040F0450007F8020D11A8C01BC01D98
:1055000002901398007800B1012000EB0901019886
:1055100001EBE071029801440398401A401E039089
:10552000E00306D453462146179A039800F05CF82E
:1055300005441398007818B15246179990476D1C8E
:10554000E00323D553462146179A039800F04CF800
:1055500005441BE0BBF1000F07DB0098584504DD54
:105560001098179910F80B0001E017993020524657
:10557000904701980BF1010B401E05F101050190C8
:1055800004D12E205246179990476D1CB9F10001A5
:10559000A9F10109DEDC05E017F8010B5246179965
:1055A00090476D1C0299481E02900029F4DC534676
:1055B0002146179A03989EE62D0000002B0000005C
:1055C000200000002DE9F041044600251E46174644
:1055D000880404D405E039462020B0476D1C641EC1
:1055E000F9D52846BDE8F0812DE9F04104460025B3
:1055F0001E469046C80301D5302700E020278804C6
:1056000004D505E041463846B0476D1C641EF9D507
:105610002846BDE8F0810A68531C0B601070704783
:1056200070B50022144613464FF4FA660BE000BF33
:1056300050F8235035B1B54201DA2A4401E002F5B1
:10564000FA62641C5B1C8B42F2DB92FBF4F070BDCF
:1056500070B514212DED028B1248FFF7E1FF0646CD
:1056600014211148FFF7DCFF104D9FED118A04460D
:10567000FA2E06DA2868002803DAB0EE480AFDF7A9
:10568000EDFAFA2C0ADA2868002807DDB0EE480A9D
:10569000BDEC028BBDE87040FDF7E0BABDEC028BBB
:1056A00070BD0000641700204C1900200800002085
:1056B0000000000082B0CDE9000121F0004001901F
:1056C0009DED000B02B051EC100B704713B54FF677
:1056D000FF73012269460248FCF75CFD00981CBD7F
:1056E0008C1C00202DED028BFBF7C4FAFDF7D4FAD9
:1056F000FCF7DCFEFDF790F8FDF7AAF8FCF7B8FF21
:10570000FCF7ECFFFCF744FFFDF720F8FDF7BCF8D1
:10571000FDF782FAFCF7E6FDFCF78EFDFDF71CF9BC
:105720000020FDF77FFA4FF4B475344EFDF7CAF848
:10573000FCF7D4FD0446002000F1B40191FBF5F222
:1057400005FB121204EBC001401C91ED010AA842B6
:10575000BDEEC00A10EE101A46F82210ECDB274905
:105760004FF4B46201F5B460FAF75DFD24480021FE
:1057700090ED000A0846B8EEC00AFDF7D3F92148BB
:105780000A21D0F8D00290FBF1F000EE100A0021BF
:105790003C20B8EEC00AFDF7C5F9D4ED010AB2EE1F
:1057A000048A202180EE880A0020FDF7BBF9D4EDA1
:1057B000B50A20213C2080EE880AFDF7B3F904F5F4
:1057C00080603021D0ED690A002080EE880AFDF764
:1057D000A9F904F500643021D4ED1D0A3C2080EEC7
:1057E000880AFDF79FF9FDF783F840F2EE209FED60
:1057F000061B9FED070B00F00FF897E7E40F002062
:1058000008000020841500209A9999999999C93F18
:105810009A9999999999D93F2DE9F14F83462DEDA0
:10582000040B1521CC482DED108B82B0FFF7F8FE4C
:10583000A0F5FA71B1F5967F02D29FEDC80A07E094
:10584000B0F5FA7F02DA9FEDC60A01E09FEDC50AC6
:10585000FDF71AFA00273E463C469FEDC39BDFF852
:1058600010835A25B0EE49CAF0EE69CAB0EE49BAC3
:10587000F0EE69BAB0EE49AAF0EE69AAB0EE498A34
:10588000F0EE698A9FEDBBDB4FF4877958F825006D
:10589000002847DD584545DAA24600967F1C2E4673
:1058A0000446012F3EDDA4EB0A00002801DCAAEB30
:1058B0000400FAF771FE41EC1F0B0AEB0400FAF743
:1058C0006BFE41EC1E0B0098301AFAF765FE53ECA4
:1058D0001E2BFAF780FD53EC1D2BFAF77CFD53ECE1
:1058E0001F2BFAF7D1FC41EC1E0B53EC182BFAF7E7
:1058F00077FE17D20098FAF74FFE41EC190B3046AD
:10590000FAF74AFE41EC1C0B5046FAF745FE41EC13
:105910001B0B2046FAF740FE41EC1A0BB0EE4E8A04
:10592000F0EE6E8A6D1C4D45B0DB53EC192B51EC3B
:105930001C0BFAF74AFD9FED91EB53EC1E2BFAF787
:105940004AFD9FED908B53EC182BFAF7B6FD41EC16
:10595000100BFDF7F5FEB0EE40CAF0EE60CA9FED09
:105960008B0B51EC1B0B53EC102BFAF734FD0D464F
:1059700045EC100B044653EC1A2B51EC100BFAF7C4
:105980002AFD53EC1C2BFAF726FD41EC1F0B9FED73
:105990007F1BB0EE4A0AF0EE6A0AFDF735FFB0EE63
:1059A00040CAF0EE60CA9FED791BB0EE4B0AF0EEF4
:1059B0006B0AFDF729FF53EC1C2B51EC100BFAF787
:1059C00063FC53EC1F2BFAF700FD41EC100BFEF7C4
:1059D00043FDB0EE40FAF0EE60FA9FED6C1BFDF770
:1059E00013FF9FED6C1B51EC100B53EC112BFAF7CE
:1059F000F2FC41EC1C0B9FED651BB0EE4A0AF0EE89
:105A00006A0AFDF701FFB0EE40AAF0EE60AA9FED32
:105A10005F1BB0EE4B0AF0EE6B0AFDF7F5FEB0EE41
:105A2000401AF0EE601A53EC1A2B51EC110BFAF7F6
:105A30002BFC53EC1D2BFAF7CEFC53EC1C2BFAF786
:105A4000C4FC41EC100BFEF707FDB0EE40AAF0EEEF
:105A500060AA45EC104B53EC1A2B51EC100BFAF7E3
:105A6000BAFC41EC1C0B53EC1D2B51EC1F0BFAF74D
:105A7000B2FC41EC100B9FED451BFDF7C5FEB0EEEF
:105A800040DAF0EE60DA9FED411BB0EE4A0AF0EE2C
:105A90006A0AFDF7B9FEB0EE40AAF0EE60AA9FEDEB
:105AA0003B1BB0EE4B0AF0EE6B0AFDF7ADFEB0EE1D
:105AB000401AF0EE601A53EC1A2B51EC110BFAF766
:105AC000E3FB53EC1D2BFAF780FC53EC1C2BFAF78D
:105AD000F4FC41EC100BFDF787FC53EC182B51EC58
